{
  "contractName": "NFTCollection",
  "abi": [
    {
      "inputs": [],
      "stateMutability": "nonpayable",
      "type": "constructor"
    },
    {
      "anonymous": false,
      "inputs": [
        {
          "indexed": true,
          "internalType": "address",
          "name": "owner",
          "type": "address"
        },
        {
          "indexed": true,
          "internalType": "address",
          "name": "approved",
          "type": "address"
        },
        {
          "indexed": true,
          "internalType": "uint256",
          "name": "tokenId",
          "type": "uint256"
        }
      ],
      "name": "Approval",
      "type": "event"
    },
    {
      "anonymous": false,
      "inputs": [
        {
          "indexed": true,
          "internalType": "address",
          "name": "owner",
          "type": "address"
        },
        {
          "indexed": true,
          "internalType": "address",
          "name": "operator",
          "type": "address"
        },
        {
          "indexed": false,
          "internalType": "bool",
          "name": "approved",
          "type": "bool"
        }
      ],
      "name": "ApprovalForAll",
      "type": "event"
    },
    {
      "anonymous": false,
      "inputs": [
        {
          "indexed": true,
          "internalType": "address",
          "name": "from",
          "type": "address"
        },
        {
          "indexed": true,
          "internalType": "address",
          "name": "to",
          "type": "address"
        },
        {
          "indexed": true,
          "internalType": "uint256",
          "name": "tokenId",
          "type": "uint256"
        }
      ],
      "name": "Transfer",
      "type": "event"
    },
    {
      "inputs": [
        {
          "internalType": "address",
          "name": "to",
          "type": "address"
        },
        {
          "internalType": "uint256",
          "name": "tokenId",
          "type": "uint256"
        }
      ],
      "name": "approve",
      "outputs": [],
      "stateMutability": "nonpayable",
      "type": "function"
    },
    {
      "inputs": [
        {
          "internalType": "address",
          "name": "owner",
          "type": "address"
        }
      ],
      "name": "balanceOf",
      "outputs": [
        {
          "internalType": "uint256",
          "name": "",
          "type": "uint256"
        }
      ],
      "stateMutability": "view",
      "type": "function",
      "constant": true
    },
    {
      "inputs": [
        {
          "internalType": "uint256",
          "name": "tokenId",
          "type": "uint256"
        }
      ],
      "name": "getApproved",
      "outputs": [
        {
          "internalType": "address",
          "name": "",
          "type": "address"
        }
      ],
      "stateMutability": "view",
      "type": "function",
      "constant": true
    },
    {
      "inputs": [
        {
          "internalType": "address",
          "name": "owner",
          "type": "address"
        },
        {
          "internalType": "address",
          "name": "operator",
          "type": "address"
        }
      ],
      "name": "isApprovedForAll",
      "outputs": [
        {
          "internalType": "bool",
          "name": "",
          "type": "bool"
        }
      ],
      "stateMutability": "view",
      "type": "function",
      "constant": true
    },
    {
      "inputs": [],
      "name": "name",
      "outputs": [
        {
          "internalType": "string",
          "name": "",
          "type": "string"
        }
      ],
      "stateMutability": "view",
      "type": "function",
      "constant": true
    },
    {
      "inputs": [
        {
          "internalType": "uint256",
          "name": "tokenId",
          "type": "uint256"
        }
      ],
      "name": "ownerOf",
      "outputs": [
        {
          "internalType": "address",
          "name": "",
          "type": "address"
        }
      ],
      "stateMutability": "view",
      "type": "function",
      "constant": true
    },
    {
      "inputs": [
        {
          "internalType": "address",
          "name": "from",
          "type": "address"
        },
        {
          "internalType": "address",
          "name": "to",
          "type": "address"
        },
        {
          "internalType": "uint256",
          "name": "tokenId",
          "type": "uint256"
        }
      ],
      "name": "safeTransferFrom",
      "outputs": [],
      "stateMutability": "nonpayable",
      "type": "function"
    },
    {
      "inputs": [
        {
          "internalType": "address",
          "name": "from",
          "type": "address"
        },
        {
          "internalType": "address",
          "name": "to",
          "type": "address"
        },
        {
          "internalType": "uint256",
          "name": "tokenId",
          "type": "uint256"
        },
        {
          "internalType": "bytes",
          "name": "_data",
          "type": "bytes"
        }
      ],
      "name": "safeTransferFrom",
      "outputs": [],
      "stateMutability": "nonpayable",
      "type": "function"
    },
    {
      "inputs": [
        {
          "internalType": "address",
          "name": "operator",
          "type": "address"
        },
        {
          "internalType": "bool",
          "name": "approved",
          "type": "bool"
        }
      ],
      "name": "setApprovalForAll",
      "outputs": [],
      "stateMutability": "nonpayable",
      "type": "function"
    },
    {
      "inputs": [],
      "name": "symbol",
      "outputs": [
        {
          "internalType": "string",
          "name": "",
          "type": "string"
        }
      ],
      "stateMutability": "view",
      "type": "function",
      "constant": true
    },
    {
      "inputs": [
        {
          "internalType": "uint256",
          "name": "index",
          "type": "uint256"
        }
      ],
      "name": "tokenByIndex",
      "outputs": [
        {
          "internalType": "uint256",
          "name": "",
          "type": "uint256"
        }
      ],
      "stateMutability": "view",
      "type": "function",
      "constant": true
    },
    {
      "inputs": [
        {
          "internalType": "address",
          "name": "owner",
          "type": "address"
        },
        {
          "internalType": "uint256",
          "name": "index",
          "type": "uint256"
        }
      ],
      "name": "tokenOfOwnerByIndex",
      "outputs": [
        {
          "internalType": "uint256",
          "name": "",
          "type": "uint256"
        }
      ],
      "stateMutability": "view",
      "type": "function",
      "constant": true
    },
    {
      "inputs": [
        {
          "internalType": "uint256",
          "name": "",
          "type": "uint256"
        }
      ],
      "name": "tokenURIs",
      "outputs": [
        {
          "internalType": "string",
          "name": "",
          "type": "string"
        }
      ],
      "stateMutability": "view",
      "type": "function",
      "constant": true
    },
    {
      "inputs": [],
      "name": "totalSupply",
      "outputs": [
        {
          "internalType": "uint256",
          "name": "",
          "type": "uint256"
        }
      ],
      "stateMutability": "view",
      "type": "function",
      "constant": true
    },
    {
      "inputs": [
        {
          "internalType": "address",
          "name": "from",
          "type": "address"
        },
        {
          "internalType": "address",
          "name": "to",
          "type": "address"
        },
        {
          "internalType": "uint256",
          "name": "tokenId",
          "type": "uint256"
        }
      ],
      "name": "transferFrom",
      "outputs": [],
      "stateMutability": "nonpayable",
      "type": "function"
    },
    {
      "inputs": [
        {
          "internalType": "bytes4",
          "name": "interfaceId",
          "type": "bytes4"
        }
      ],
      "name": "supportsInterface",
      "outputs": [
        {
          "internalType": "bool",
          "name": "",
          "type": "bool"
        }
      ],
      "stateMutability": "view",
      "type": "function",
      "constant": true
    },
    {
      "inputs": [
        {
          "internalType": "uint256",
          "name": "tokenId",
          "type": "uint256"
        }
      ],
      "name": "tokenURI",
      "outputs": [
        {
          "internalType": "string",
          "name": "",
          "type": "string"
        }
      ],
      "stateMutability": "view",
      "type": "function",
      "constant": true
    },
    {
      "inputs": [
        {
          "internalType": "string",
          "name": "_tokenURI",
          "type": "string"
        }
      ],
      "name": "safeMint",
      "outputs": [],
      "stateMutability": "nonpayable",
      "type": "function"
    },
    {
      "inputs": [
        {
          "internalType": "address",
          "name": "_address",
          "type": "address"
        },
        {
          "internalType": "uint256",
          "name": "_id",
          "type": "uint256"
        }
      ],
      "name": "setTrack",
      "outputs": [
        {
          "internalType": "bool",
          "name": "",
          "type": "bool"
        }
      ],
      "stateMutability": "nonpayable",
      "type": "function"
    },
    {
      "inputs": [
        {
          "internalType": "uint256",
          "name": "_id",
          "type": "uint256"
        }
      ],
      "name": "getTrack",
      "outputs": [
        {
          "internalType": "address[]",
          "name": "",
          "type": "address[]"
        }
      ],
      "stateMutability": "view",
      "type": "function",
      "constant": true
    }
  ],
  "bytecode": "0x60806040523480156200001157600080fd5b506040518060400160405280600e81526020017f6d544320436f6c6c656374696f6e0000000000000000000000000000000000008152506040518060400160405280600381526020017f6d54430000000000000000000000000000000000000000000000000000000000815250816000908051906020019062000096929190620000b8565b508060019080519060200190620000af929190620000b8565b505050620001cd565b828054620000c69062000197565b90600052602060002090601f016020900481019282620000ea576000855562000136565b82601f106200010557805160ff191683800117855562000136565b8280016001018555821562000136579182015b828111156200013557825182559160200191906001019062000118565b5b50905062000145919062000149565b5090565b5b80821115620001645760008160009055506001016200014a565b5090565b7f4e487b7100000000000000000000000000000000000000000000000000000000600052602260045260246000fd5b60006002820490506001821680620001b057607f821691505b60208210811415620001c757620001c662000168565b5b50919050565b61334d80620001dd6000396000f3fe608060405234801561001057600080fd5b506004361061012c5760003560e01c80636352211e116100ad578063a22cb46511610071578063a22cb4651461037b578063af3585fe14610397578063b88d4fde146103c7578063c87b56dd146103e3578063e985e9c5146104135761012c565b80636352211e146102b1578063695850fb146102e15780636c8b703f146102fd57806370a082311461032d57806395d89b411461035d5761012c565b806323b872dd116100f457806323b872dd146101e95780632f745c591461020557806342842e0e146102355780634f6ccce714610251578063629058ca146102815761012c565b806301ffc9a71461013157806306fdde0314610161578063081812fc1461017f578063095ea7b3146101af57806318160ddd146101cb575b600080fd5b61014b6004803603810190610146919061202e565b610443565b6040516101589190612076565b60405180910390f35b610169610455565b604051610176919061212a565b60405180910390f35b61019960048036038101906101949190612182565b6104e7565b6040516101a691906121f0565b60405180910390f35b6101c960048036038101906101c49190612237565b61056c565b005b6101d3610684565b6040516101e09190612286565b60405180910390f35b61020360048036038101906101fe91906122a1565b610691565b005b61021f600480360381019061021a9190612237565b6106f1565b60405161022c9190612286565b60405180910390f35b61024f600480360381019061024a91906122a1565b610796565b005b61026b60048036038101906102669190612182565b6107b6565b6040516102789190612286565b60405180910390f35b61029b60048036038101906102969190612182565b610827565b6040516102a891906123b2565b60405180910390f35b6102cb60048036038101906102c69190612182565b6108cd565b6040516102d891906121f0565b60405180910390f35b6102fb60048036038101906102f69190612509565b61097f565b005b61031760048036038101906103129190612182565b610aa9565b604051610324919061212a565b60405180910390f35b61034760048036038101906103429190612552565b610b55565b6040516103549190612286565b60405180910390f35b610365610c0d565b604051610372919061212a565b60405180910390f35b610395600480360381019061039091906125ab565b610c9f565b005b6103b160048036038101906103ac9190612237565b610cb5565b6040516103be9190612076565b60405180910390f35b6103e160048036038101906103dc919061268c565b610d35565b005b6103fd60048036038101906103f89190612182565b610d97565b60405161040a919061212a565b60405180910390f35b61042d6004803603810190610428919061270f565b610e84565b60405161043a9190612076565b60405180910390f35b600061044e82610f18565b9050919050565b6060600080546104649061277e565b80601f01602080910402602001604051908101604052809291908181526020018280546104909061277e565b80156104dd5780601f106104b2576101008083540402835291602001916104dd565b820191906000526020600020905b8154815290600101906020018083116104c057829003601f168201915b5050505050905090565b60006104f282610f92565b610531576040517f08c379a000000000000000000000000000000000000000000000000000000000815260040161052890612822565b60405180910390fd5b6004600083815260200190815260200160002060009054906101000a900473ffffffffffffffffffffffffffffffffffffffff169050919050565b6000610577826108cd565b90508073ffffffffffffffffffffffffffffffffffffffff168373ffffffffffffffffffffffffffffffffffffffff1614156105e8576040517f08c379a00000000000000000000000000000000000000000000000000000000081526004016105df906128b4565b60405180910390fd5b8073ffffffffffffffffffffffffffffffffffffffff16610607610ffe565b73ffffffffffffffffffffffffffffffffffffffff161480610636575061063581610630610ffe565b610e84565b5b610675576040517f08c379a000000000000000000000000000000000000000000000000000000000815260040161066c90612946565b60405180910390fd5b61067f8383611006565b505050565b6000600880549050905090565b6106a261069c610ffe565b826110bf565b6106e1576040517f08c379a00000000000000000000000000000000000000000000000000000000081526004016106d8906129d8565b60405180910390fd5b6106ec83838361119d565b505050565b60006106fc83610b55565b821061073d576040517f08c379a000000000000000000000000000000000000000000000000000000000815260040161073490612a6a565b60405180910390fd5b600660008473ffffffffffffffffffffffffffffffffffffffff1673ffffffffffffffffffffffffffffffffffffffff168152602001908152602001600020600083815260200190815260200160002054905092915050565b6107b183838360405180602001604052806000815250610d35565b505050565b60006107c0610684565b8210610801576040517f08c379a00000000000000000000000000000000000000000000000000000000081526004016107f890612afc565b60405180910390fd5b6008828154811061081557610814612b1c565b5b90600052602060002001549050919050565b606080600d60008481526020019081526020016000208054806020026020016040519081016040528092919081815260200182805480156108bd57602002820191906000526020600020905b8160009054906101000a900473ffffffffffffffffffffffffffffffffffffffff1673ffffffffffffffffffffffffffffffffffffffff1681526020019060010190808311610873575b5050505050905080915050919050565b6000806002600084815260200190815260200160002060009054906101000a900473ffffffffffffffffffffffffffffffffffffffff169050600073ffffffffffffffffffffffffffffffffffffffff168173ffffffffffffffffffffffffffffffffffffffff161415610976576040517f08c379a000000000000000000000000000000000000000000000000000000000815260040161096d90612bbd565b60405180910390fd5b80915050919050565b600b8160405161098f9190612c19565b908152602001604051809103902060009054906101000a900460ff16156109eb576040517f08c379a00000000000000000000000000000000000000000000000000000000081526004016109e290612c7c565b60405180910390fd5b600a81908060018154018082558091505060019003906000526020600020016000909190919091509080519060200190610a26929190611f1f565b506000600a80549050905081600c60008381526020019081526020016000209080519060200190610a58929190611f1f565b50610a633382610cb5565b50610a6e33826113f9565b6001600b83604051610a809190612c19565b908152602001604051809103902060006101000a81548160ff0219169083151502179055505050565b600a8181548110610ab957600080fd5b906000526020600020016000915090508054610ad49061277e565b80601f0160208091040260200160405190810160405280929190818152602001828054610b009061277e565b8015610b4d5780601f10610b2257610100808354040283529160200191610b4d565b820191906000526020600020905b815481529060010190602001808311610b3057829003601f168201915b505050505081565b60008073ffffffffffffffffffffffffffffffffffffffff168273ffffffffffffffffffffffffffffffffffffffff161415610bc6576040517f08c379a0000000000000000000000000000000000000000000000000000000008152600401610bbd90612d0e565b60405180910390fd5b600360008373ffffffffffffffffffffffffffffffffffffffff1673ffffffffffffffffffffffffffffffffffffffff168152602001908152602001600020549050919050565b606060018054610c1c9061277e565b80601f0160208091040260200160405190810160405280929190818152602001828054610c489061277e565b8015610c955780601f10610c6a57610100808354040283529160200191610c95565b820191906000526020600020905b815481529060010190602001808311610c7857829003601f168201915b5050505050905090565b610cb1610caa610ffe565b8383611417565b5050565b6000600d6000838152602001908152602001600020839080600181540180825580915050600190039060005260206000200160009091909190916101000a81548173ffffffffffffffffffffffffffffffffffffffff021916908373ffffffffffffffffffffffffffffffffffffffff1602179055506001905092915050565b610d46610d40610ffe565b836110bf565b610d85576040517f08c379a0000000000000000000000000000000000000000000000000000000008152600401610d7c906129d8565b60405180910390fd5b610d9184848484611584565b50505050565b6060610da282610f92565b610de1576040517f08c379a0000000000000000000000000000000000000000000000000000000008152600401610dd890612da0565b60405180910390fd5b600c60008381526020019081526020016000208054610dff9061277e565b80601f0160208091040260200160405190810160405280929190818152602001828054610e2b9061277e565b8015610e785780601f10610e4d57610100808354040283529160200191610e78565b820191906000526020600020905b815481529060010190602001808311610e5b57829003601f168201915b50505050509050919050565b6000600560008473ffffffffffffffffffffffffffffffffffffffff1673ffffffffffffffffffffffffffffffffffffffff16815260200190815260200160002060008373ffffffffffffffffffffffffffffffffffffffff1673ffffffffffffffffffffffffffffffffffffffff16815260200190815260200160002060009054906101000a900460ff16905092915050565b60007f780e9d63000000000000000000000000000000000000000000000000000000007bffffffffffffffffffffffffffffffffffffffffffffffffffffffff1916827bffffffffffffffffffffffffffffffffffffffffffffffffffffffff19161480610f8b5750610f8a826115e0565b5b9050919050565b60008073ffffffffffffffffffffffffffffffffffffffff166002600084815260200190815260200160002060009054906101000a900473ffffffffffffffffffffffffffffffffffffffff1673ffffffffffffffffffffffffffffffffffffffff1614159050919050565b600033905090565b816004600083815260200190815260200160002060006101000a81548173ffffffffffffffffffffffffffffffffffffffff021916908373ffffffffffffffffffffffffffffffffffffffff160217905550808273ffffffffffffffffffffffffffffffffffffffff16611079836108cd565b73ffffffffffffffffffffffffffffffffffffffff167f8c5be1e5ebec7d5bd14f71427d1e84f3dd0314c0f7b2291e5b200ac8c7c3b92560405160405180910390a45050565b60006110ca82610f92565b611109576040517f08c379a000000000000000000000000000000000000000000000000000000000815260040161110090612e32565b60405180910390fd5b6000611114836108cd565b90508073ffffffffffffffffffffffffffffffffffffffff168473ffffffffffffffffffffffffffffffffffffffff16148061118357508373ffffffffffffffffffffffffffffffffffffffff1661116b846104e7565b73ffffffffffffffffffffffffffffffffffffffff16145b8061119457506111938185610e84565b5b91505092915050565b8273ffffffffffffffffffffffffffffffffffffffff166111bd826108cd565b73ffffffffffffffffffffffffffffffffffffffff1614611213576040517f08c379a000000000000000000000000000000000000000000000000000000000815260040161120a90612ec4565b60405180910390fd5b600073ffffffffffffffffffffffffffffffffffffffff168273ffffffffffffffffffffffffffffffffffffffff161415611283576040517f08c379a000000000000000000000000000000000000000000000000000000000815260040161127a90612f56565b60405180910390fd5b61128e8383836116c2565b611299600082611006565b6001600360008573ffffffffffffffffffffffffffffffffffffffff1673ffffffffffffffffffffffffffffffffffffffff16815260200190815260200160002060008282546112e99190612fa5565b925050819055506001600360008473ffffffffffffffffffffffffffffffffffffffff1673ffffffffffffffffffffffffffffffffffffffff16815260200190815260200160002060008282546113409190612fd9565b92505081905550816002600083815260200190815260200160002060006101000a81548173ffffffffffffffffffffffffffffffffffffffff021916908373ffffffffffffffffffffffffffffffffffffffff160217905550808273ffffffffffffffffffffffffffffffffffffffff168473ffffffffffffffffffffffffffffffffffffffff167fddf252ad1be2c89b69c2b068fc378daa952ba7f163c4a11628f55a4df523b3ef60405160405180910390a4505050565b6114138282604051806020016040528060008152506116d2565b5050565b8173ffffffffffffffffffffffffffffffffffffffff168373ffffffffffffffffffffffffffffffffffffffff161415611486576040517f08c379a000000000000000000000000000000000000000000000000000000000815260040161147d9061307b565b60405180910390fd5b80600560008573ffffffffffffffffffffffffffffffffffffffff1673ffffffffffffffffffffffffffffffffffffffff16815260200190815260200160002060008473ffffffffffffffffffffffffffffffffffffffff1673ffffffffffffffffffffffffffffffffffffffff16815260200190815260200160002060006101000a81548160ff0219169083151502179055508173ffffffffffffffffffffffffffffffffffffffff168373ffffffffffffffffffffffffffffffffffffffff167f17307eab39ab6107e8899845ad3d59bd9653f200f220920489ca2b5937696c31836040516115779190612076565b60405180910390a3505050565b61158f84848461119d565b61159b8484848461172d565b6115da576040517f08c379a00000000000000000000000000000000000000000000000000000000081526004016115d19061310d565b60405180910390fd5b50505050565b60007f80ac58cd000000000000000000000000000000000000000000000000000000007bffffffffffffffffffffffffffffffffffffffffffffffffffffffff1916827bffffffffffffffffffffffffffffffffffffffffffffffffffffffff191614806116ab57507f5b5e139f000000000000000000000000000000000000000000000000000000007bffffffffffffffffffffffffffffffffffffffffffffffffffffffff1916827bffffffffffffffffffffffffffffffffffffffffffffffffffffffff1916145b806116bb57506116ba826118b5565b5b9050919050565b6116cd83838361191f565b505050565b6116dc8383611a33565b6116e9600084848461172d565b611728576040517f08c379a000000000000000000000000000000000000000000000000000000000815260040161171f9061310d565b60405180910390fd5b505050565b600061174e8473ffffffffffffffffffffffffffffffffffffffff16611c01565b156118a8578373ffffffffffffffffffffffffffffffffffffffff1663150b7a02611777610ffe565b8786866040518563ffffffff1660e01b81526004016117999493929190613182565b6020604051808303816000875af19250505080156117d557506040513d601f19601f820116820180604052508101906117d291906131e3565b60015b611858573d8060008114611805576040519150601f19603f3d011682016040523d82523d6000602084013e61180a565b606091505b50600081511415611850576040517f08c379a00000000000000000000000000000000000000000000000000000000081526004016118479061310d565b60405180910390fd5b805181602001fd5b63150b7a0260e01b7bffffffffffffffffffffffffffffffffffffffffffffffffffffffff1916817bffffffffffffffffffffffffffffffffffffffffffffffffffffffff1916149150506118ad565b600190505b949350505050565b60007f01ffc9a7000000000000000000000000000000000000000000000000000000007bffffffffffffffffffffffffffffffffffffffffffffffffffffffff1916827bffffffffffffffffffffffffffffffffffffffffffffffffffffffff1916149050919050565b61192a838383611c14565b600073ffffffffffffffffffffffffffffffffffffffff168373ffffffffffffffffffffffffffffffffffffffff16141561196d5761196881611c19565b6119ac565b8173ffffffffffffffffffffffffffffffffffffffff168373ffffffffffffffffffffffffffffffffffffffff16146119ab576119aa8382611c62565b5b5b600073ffffffffffffffffffffffffffffffffffffffff168273ffffffffffffffffffffffffffffffffffffffff1614156119ef576119ea81611dcf565b611a2e565b8273ffffffffffffffffffffffffffffffffffffffff168273ffffffffffffffffffffffffffffffffffffffff1614611a2d57611a2c8282611ea0565b5b5b505050565b600073ffffffffffffffffffffffffffffffffffffffff168273ffffffffffffffffffffffffffffffffffffffff161415611aa3576040517f08c379a0000000000000000000000000000000000000000000000000000000008152600401611a9a9061325c565b60405180910390fd5b611aac81610f92565b15611aec576040517f08c379a0000000000000000000000000000000000000000000000000000000008152600401611ae3906132c8565b60405180910390fd5b611af8600083836116c2565b6001600360008473ffffffffffffffffffffffffffffffffffffffff1673ffffffffffffffffffffffffffffffffffffffff1681526020019081526020016000206000828254611b489190612fd9565b92505081905550816002600083815260200190815260200160002060006101000a81548173ffffffffffffffffffffffffffffffffffffffff021916908373ffffffffffffffffffffffffffffffffffffffff160217905550808273ffffffffffffffffffffffffffffffffffffffff16600073ffffffffffffffffffffffffffffffffffffffff167fddf252ad1be2c89b69c2b068fc378daa952ba7f163c4a11628f55a4df523b3ef60405160405180910390a45050565b600080823b905060008111915050919050565b505050565b6008805490506009600083815260200190815260200160002081905550600881908060018154018082558091505060019003906000526020600020016000909190919091505550565b60006001611c6f84610b55565b611c799190612fa5565b9050600060076000848152602001908152602001600020549050818114611d5e576000600660008673ffffffffffffffffffffffffffffffffffffffff1673ffffffffffffffffffffffffffffffffffffffff168152602001908152602001600020600084815260200190815260200160002054905080600660008773ffffffffffffffffffffffffffffffffffffffff1673ffffffffffffffffffffffffffffffffffffffff168152602001908152602001600020600084815260200190815260200160002081905550816007600083815260200190815260200160002081905550505b6007600084815260200190815260200160002060009055600660008573ffffffffffffffffffffffffffffffffffffffff1673ffffffffffffffffffffffffffffffffffffffff16815260200190815260200160002060008381526020019081526020016000206000905550505050565b60006001600880549050611de39190612fa5565b9050600060096000848152602001908152602001600020549050600060088381548110611e1357611e12612b1c565b5b906000526020600020015490508060088381548110611e3557611e34612b1c565b5b906000526020600020018190555081600960008381526020019081526020016000208190555060096000858152602001908152602001600020600090556008805480611e8457611e836132e8565b5b6001900381819060005260206000200160009055905550505050565b6000611eab83610b55565b905081600660008573ffffffffffffffffffffffffffffffffffffffff1673ffffffffffffffffffffffffffffffffffffffff168152602001908152602001600020600083815260200190815260200160002081905550806007600084815260200190815260200160002081905550505050565b828054611f2b9061277e565b90600052602060002090601f016020900481019282611f4d5760008555611f94565b82601f10611f6657805160ff1916838001178555611f94565b82800160010185558215611f94579182015b82811115611f93578251825591602001919060010190611f78565b5b509050611fa19190611fa5565b5090565b5b80821115611fbe576000816000905550600101611fa6565b5090565b6000604051905090565b600080fd5b600080fd5b60007fffffffff0000000000000000000000000000000000000000000000000000000082169050919050565b61200b81611fd6565b811461201657600080fd5b50565b60008135905061202881612002565b92915050565b60006020828403121561204457612043611fcc565b5b600061205284828501612019565b91505092915050565b60008115159050919050565b6120708161205b565b82525050565b600060208201905061208b6000830184612067565b92915050565b600081519050919050565b600082825260208201905092915050565b60005b838110156120cb5780820151818401526020810190506120b0565b838111156120da576000848401525b50505050565b6000601f19601f8301169050919050565b60006120fc82612091565b612106818561209c565b93506121168185602086016120ad565b61211f816120e0565b840191505092915050565b6000602082019050818103600083015261214481846120f1565b905092915050565b6000819050919050565b61215f8161214c565b811461216a57600080fd5b50565b60008135905061217c81612156565b92915050565b60006020828403121561219857612197611fcc565b5b60006121a68482850161216d565b91505092915050565b600073ffffffffffffffffffffffffffffffffffffffff82169050919050565b60006121da826121af565b9050919050565b6121ea816121cf565b82525050565b600060208201905061220560008301846121e1565b92915050565b612214816121cf565b811461221f57600080fd5b50565b6000813590506122318161220b565b92915050565b6000806040838503121561224e5761224d611fcc565b5b600061225c85828601612222565b925050602061226d8582860161216d565b9150509250929050565b6122808161214c565b82525050565b600060208201905061229b6000830184612277565b92915050565b6000806000606084860312156122ba576122b9611fcc565b5b60006122c886828701612222565b93505060206122d986828701612222565b92505060406122ea8682870161216d565b9150509250925092565b600081519050919050565b600082825260208201905092915050565b6000819050602082019050919050565b612329816121cf565b82525050565b600061233b8383612320565b60208301905092915050565b6000602082019050919050565b600061235f826122f4565b61236981856122ff565b935061237483612310565b8060005b838110156123a557815161238c888261232f565b975061239783612347565b925050600181019050612378565b5085935050505092915050565b600060208201905081810360008301526123cc8184612354565b905092915050565b600080fd5b600080fd5b7f4e487b7100000000000000000000000000000000000000000000000000000000600052604160045260246000fd5b612416826120e0565b810181811067ffffffffffffffff82111715612435576124346123de565b5b80604052505050565b6000612448611fc2565b9050612454828261240d565b919050565b600067ffffffffffffffff821115612474576124736123de565b5b61247d826120e0565b9050602081019050919050565b82818337600083830152505050565b60006124ac6124a784612459565b61243e565b9050828152602081018484840111156124c8576124c76123d9565b5b6124d384828561248a565b509392505050565b600082601f8301126124f0576124ef6123d4565b5b8135612500848260208601612499565b91505092915050565b60006020828403121561251f5761251e611fcc565b5b600082013567ffffffffffffffff81111561253d5761253c611fd1565b5b612549848285016124db565b91505092915050565b60006020828403121561256857612567611fcc565b5b600061257684828501612222565b91505092915050565b6125888161205b565b811461259357600080fd5b50565b6000813590506125a58161257f565b92915050565b600080604083850312156125c2576125c1611fcc565b5b60006125d085828601612222565b92505060206125e185828601612596565b9150509250929050565b600067ffffffffffffffff821115612606576126056123de565b5b61260f826120e0565b9050602081019050919050565b600061262f61262a846125eb565b61243e565b90508281526020810184848401111561264b5761264a6123d9565b5b61265684828561248a565b509392505050565b600082601f830112612673576126726123d4565b5b813561268384826020860161261c565b91505092915050565b600080600080608085870312156126a6576126a5611fcc565b5b60006126b487828801612222565b94505060206126c587828801612222565b93505060406126d68782880161216d565b925050606085013567ffffffffffffffff8111156126f7576126f6611fd1565b5b6127038782880161265e565b91505092959194509250565b6000806040838503121561272657612725611fcc565b5b600061273485828601612222565b925050602061274585828601612222565b9150509250929050565b7f4e487b7100000000000000000000000000000000000000000000000000000000600052602260045260246000fd5b6000600282049050600182168061279657607f821691505b602082108114156127aa576127a961274f565b5b50919050565b7f4552433732313a20617070726f76656420717565727920666f72206e6f6e657860008201527f697374656e7420746f6b656e0000000000000000000000000000000000000000602082015250565b600061280c602c8361209c565b9150612817826127b0565b604082019050919050565b6000602082019050818103600083015261283b816127ff565b9050919050565b7f4552433732313a20617070726f76616c20746f2063757272656e74206f776e6560008201527f7200000000000000000000000000000000000000000000000000000000000000602082015250565b600061289e60218361209c565b91506128a982612842565b604082019050919050565b600060208201905081810360008301526128cd81612891565b9050919050565b7f4552433732313a20617070726f76652063616c6c6572206973206e6f74206f7760008201527f6e6572206e6f7220617070726f76656420666f7220616c6c0000000000000000602082015250565b600061293060388361209c565b915061293b826128d4565b604082019050919050565b6000602082019050818103600083015261295f81612923565b9050919050565b7f4552433732313a207472616e736665722063616c6c6572206973206e6f74206f60008201527f776e6572206e6f7220617070726f766564000000000000000000000000000000602082015250565b60006129c260318361209c565b91506129cd82612966565b604082019050919050565b600060208201905081810360008301526129f1816129b5565b9050919050565b7f455243373231456e756d657261626c653a206f776e657220696e646578206f7560008201527f74206f6620626f756e6473000000000000000000000000000000000000000000602082015250565b6000612a54602b8361209c565b9150612a5f826129f8565b604082019050919050565b60006020820190508181036000830152612a8381612a47565b9050919050565b7f455243373231456e756d657261626c653a20676c6f62616c20696e646578206f60008201527f7574206f6620626f756e64730000000000000000000000000000000000000000602082015250565b6000612ae6602c8361209c565b9150612af182612a8a565b604082019050919050565b60006020820190508181036000830152612b1581612ad9565b9050919050565b7f4e487b7100000000000000000000000000000000000000000000000000000000600052603260045260246000fd5b7f4552433732313a206f776e657220717565727920666f72206e6f6e657869737460008201527f656e7420746f6b656e0000000000000000000000000000000000000000000000602082015250565b6000612ba760298361209c565b9150612bb282612b4b565b604082019050919050565b60006020820190508181036000830152612bd681612b9a565b9050919050565b600081905092915050565b6000612bf382612091565b612bfd8185612bdd565b9350612c0d8185602086016120ad565b80840191505092915050565b6000612c258284612be8565b915081905092915050565b7f54686520746f6b656e205552492073686f756c6420626520756e697175650000600082015250565b6000612c66601e8361209c565b9150612c7182612c30565b602082019050919050565b60006020820190508181036000830152612c9581612c59565b9050919050565b7f4552433732313a2062616c616e636520717565727920666f7220746865207a6560008201527f726f206164647265737300000000000000000000000000000000000000000000602082015250565b6000612cf8602a8361209c565b9150612d0382612c9c565b604082019050919050565b60006020820190508181036000830152612d2781612ceb565b9050919050565b7f4552433732314d657461646174613a2055524920717565727920666f72206e6f60008201527f6e6578697374656e7420746f6b656e0000000000000000000000000000000000602082015250565b6000612d8a602f8361209c565b9150612d9582612d2e565b604082019050919050565b60006020820190508181036000830152612db981612d7d565b9050919050565b7f4552433732313a206f70657261746f7220717565727920666f72206e6f6e657860008201527f697374656e7420746f6b656e0000000000000000000000000000000000000000602082015250565b6000612e1c602c8361209c565b9150612e2782612dc0565b604082019050919050565b60006020820190508181036000830152612e4b81612e0f565b9050919050565b7f4552433732313a207472616e73666572206f6620746f6b656e2074686174206960008201527f73206e6f74206f776e0000000000000000000000000000000000000000000000602082015250565b6000612eae60298361209c565b9150612eb982612e52565b604082019050919050565b60006020820190508181036000830152612edd81612ea1565b9050919050565b7f4552433732313a207472616e7366657220746f20746865207a65726f2061646460008201527f7265737300000000000000000000000000000000000000000000000000000000602082015250565b6000612f4060248361209c565b9150612f4b82612ee4565b604082019050919050565b60006020820190508181036000830152612f6f81612f33565b9050919050565b7f4e487b7100000000000000000000000000000000000000000000000000000000600052601160045260246000fd5b6000612fb08261214c565b9150612fbb8361214c565b925082821015612fce57612fcd612f76565b5b828203905092915050565b6000612fe48261214c565b9150612fef8361214c565b9250827fffffffffffffffffffffffffffffffffffffffffffffffffffffffffffffffff0382111561302457613023612f76565b5b828201905092915050565b7f4552433732313a20617070726f766520746f2063616c6c657200000000000000600082015250565b600061306560198361209c565b91506130708261302f565b602082019050919050565b6000602082019050818103600083015261309481613058565b9050919050565b7f4552433732313a207472616e7366657220746f206e6f6e20455243373231526560008201527f63656976657220696d706c656d656e7465720000000000000000000000000000602082015250565b60006130f760328361209c565b91506131028261309b565b604082019050919050565b60006020820190508181036000830152613126816130ea565b9050919050565b600081519050919050565b600082825260208201905092915050565b60006131548261312d565b61315e8185613138565b935061316e8185602086016120ad565b613177816120e0565b840191505092915050565b600060808201905061319760008301876121e1565b6131a460208301866121e1565b6131b16040830185612277565b81810360608301526131c38184613149565b905095945050505050565b6000815190506131dd81612002565b92915050565b6000602082840312156131f9576131f8611fcc565b5b6000613207848285016131ce565b91505092915050565b7f4552433732313a206d696e7420746f20746865207a65726f2061646472657373600082015250565b600061324660208361209c565b915061325182613210565b602082019050919050565b6000602082019050818103600083015261327581613239565b9050919050565b7f4552433732313a20746f6b656e20616c7265616479206d696e74656400000000600082015250565b60006132b2601c8361209c565b91506132bd8261327c565b602082019050919050565b600060208201905081810360008301526132e1816132a5565b9050919050565b7f4e487b7100000000000000000000000000000000000000000000000000000000600052603160045260246000fdfea26469706673582212200a12cf410bcd5e569eca68d58db30e4566b52105347beaf5a0f193141ca38f7164736f6c634300080b0033",
  "immutableReferences": {},
  "source": "// SPDX-License-Identifier: MIT\r\npragma solidity ^0.8.0;\r\n\r\nimport \"../client/node_modules/@openzeppelin/contracts/token/ERC721/ERC721.sol\";\r\nimport \"../client/node_modules/@openzeppelin/contracts/token/ERC721/extensions/ERC721Enumerable.sol\";\r\n\r\ncontract NFTCollection is ERC721, ERC721Enumerable {\r\n  string[] public tokenURIs;\r\n  mapping(string => bool) _tokenURIExists;\r\n  mapping(uint => string) _tokenIdToTokenURI;\r\n  mapping(uint => address[]) _itemTrack;\r\n\r\n  constructor() \r\n    ERC721(\"mTC Collection\", \"mTC\") \r\n  {\r\n  }\r\n\r\n  function _beforeTokenTransfer(address from, address to, uint256 tokenId) internal override(ERC721, ERC721Enumerable) {\r\n    super._beforeTokenTransfer(from, to, tokenId);\r\n  }\r\n\r\n  function supportsInterface(bytes4 interfaceId) public view override(ERC721, ERC721Enumerable) returns (bool) {\r\n    return super.supportsInterface(interfaceId);\r\n  }\r\n\r\n  function tokenURI(uint256 tokenId) public override view returns (string memory) {\r\n    require(_exists(tokenId), 'ERC721Metadata: URI query for nonexistent token');\r\n    return _tokenIdToTokenURI[tokenId];\r\n  }\r\n\r\n  function safeMint(string memory _tokenURI) public {\r\n    require(!_tokenURIExists[_tokenURI], 'The token URI should be unique');\r\n    tokenURIs.push(_tokenURI);    \r\n    uint _id = tokenURIs.length;\r\n    _tokenIdToTokenURI[_id] = _tokenURI;\r\n    setTrack(msg.sender, _id);\r\n    _safeMint(msg.sender, _id);\r\n    _tokenURIExists[_tokenURI] = true;\r\n  }\r\n\r\n    function setTrack(address _address, uint _id) public returns(bool){\r\n        _itemTrack[_id].push(_address);\r\n        return true;\r\n    }\r\n\r\n    function getTrack(uint _id) public view returns(address[] memory){\r\n        address[] memory users;\r\n        users = _itemTrack[_id];\r\n       return users;\r\n\r\n    }\r\n}",
  "sourcePath": "C:\\work\\NFTMARKETPLACEMEDORA\\contracts\\NFTCollection.sol",
  "compiler": {
    "name": "solc",
    "version": "0.8.11+commit.d7f03943.Emscripten.clang"
  },
  "schemaVersion": "3.4.4",
  "updatedAt": "2022-01-27T23:49:14.222Z",
  "networkType": "ethereum",
  "devdoc": {
    "kind": "dev",
    "methods": {
      "approve(address,uint256)": {
        "details": "See {IERC721-approve}."
      },
      "balanceOf(address)": {
        "details": "See {IERC721-balanceOf}."
      },
      "getApproved(uint256)": {
        "details": "See {IERC721-getApproved}."
      },
      "isApprovedForAll(address,address)": {
        "details": "See {IERC721-isApprovedForAll}."
      },
      "name()": {
        "details": "See {IERC721Metadata-name}."
      },
      "ownerOf(uint256)": {
        "details": "See {IERC721-ownerOf}."
      },
      "safeTransferFrom(address,address,uint256)": {
        "details": "See {IERC721-safeTransferFrom}."
      },
      "safeTransferFrom(address,address,uint256,bytes)": {
        "details": "See {IERC721-safeTransferFrom}."
      },
      "setApprovalForAll(address,bool)": {
        "details": "See {IERC721-setApprovalForAll}."
      },
      "symbol()": {
        "details": "See {IERC721Metadata-symbol}."
      },
      "tokenByIndex(uint256)": {
        "details": "See {IERC721Enumerable-tokenByIndex}."
      },
      "tokenOfOwnerByIndex(address,uint256)": {
        "details": "See {IERC721Enumerable-tokenOfOwnerByIndex}."
      },
      "tokenURI(uint256)": {
        "details": "See {IERC721Metadata-tokenURI}."
      },
      "totalSupply()": {
        "details": "See {IERC721Enumerable-totalSupply}."
      },
      "transferFrom(address,address,uint256)": {
        "details": "See {IERC721-transferFrom}."
      }
    },
    "version": 1
  },
  "userdoc": {
    "kind": "user",
    "methods": {},
    "version": 1
  }
}